:1000000012C02AC029C028C027C026C025C024C0CD
:1000100023C022C021C021C01FC01EC01DC01CC0E3
:100020001BC01AC019C011241FBECFEDCDBF10E0F8
:10003000A0E6B0E0E2E5F1E002C005900D92A43741
:10004000B107D9F710E0A4E7B0E001C01D92A637D0
:10005000B107E1F71BD07BC0D3CF1F920F920FB631
:100060000F9211248F939F93B39909C080917400CC
:1000700090917500019690937500809374009F9104
:100080008F910F900FBE0F901F9018958FEF81BB2F
:1000900087E087BB88B3866088BB80B5886080BDF9
:1000A0008BB780628BBF7894C2E02AE030E041E0F9
:1000B0008091740090917500C8BBC29AB90120D09C
:1000C000FC01EE0FFF1FE05AFF4F808182BB83ECE3
:1000D00099E00197F1F700C0000048BBC29ACB013C
:1000E000B9010ED0880F991F805A9F4FFC01808163
:1000F00082BB83EC99E00197F1F700C00000D8CFF4
:1001000097FB072E16F4009406D077FD08D00BD08D
:1001100007FC05D03EF4909581959F4F089570950A
:1001200061957F4F0895AA1BBB1B51E107C0AA1F11
:10013000BB1FA617B70710F0A61BB70B881F991F88
:100140005A95A9F780959095BC01CD010895F89432
:02015000FFCFDF
:1001520001004F00120006004C00240020000F0096
:040162000000040095
:00000001FF
